{
  "_format": "hh-sol-artifact-1",
  "contractName": "Hasher",
  "sourceName": "contracts/Hasher.sol",
  "abi": [
    {
      "inputs": [
        {
          "internalType": "uint256[]",
          "name": "array",
          "type": "uint256[]"
        }
      ],
      "name": "hash11",
      "outputs": [
        {
          "internalType": "uint256",
          "name": "",
          "type": "uint256"
        }
      ],
      "stateMutability": "pure",
      "type": "function"
    },
    {
      "inputs": [
        {
          "internalType": "uint256[5]",
          "name": "array",
          "type": "uint256[5]"
        }
      ],
      "name": "hash5",
      "outputs": [
        {
          "internalType": "uint256",
          "name": "",
          "type": "uint256"
        }
      ],
      "stateMutability": "pure",
      "type": "function"
    },
    {
      "inputs": [
        {
          "internalType": "uint256",
          "name": "_left",
          "type": "uint256"
        },
        {
          "internalType": "uint256",
          "name": "_right",
          "type": "uint256"
        }
      ],
      "name": "hashLeftRight",
      "outputs": [
        {
          "internalType": "uint256",
          "name": "",
          "type": "uint256"
        }
      ],
      "stateMutability": "pure",
      "type": "function"
    }
  ],
  "bytecode": "0x608060405234801561001057600080fd5b50610ecf806100206000396000f3fe608060405234801561001057600080fd5b50600436106100415760003560e01c80635bb93995146100465780638a1a52d2146100765780639cfced97146100a6575b600080fd5b610060600480360381019061005b9190610af7565b6100d6565b60405161006d9190610c4d565b60405180910390f35b610090600480360381019061008b9190610a8d565b6101f8565b60405161009d9190610c4d565b60405180910390f35b6100c060048036038101906100bb9190610a64565b610846565b6040516100cd9190610c4d565b60405180910390f35b60006100e06108d6565b838160006002811061011b577f4e487b7100000000000000000000000000000000000000000000000000000000600052603260045260246000fd5b602002018181525050828160016002811061015f577f4e487b7100000000000000000000000000000000000000000000000000000000600052603260045260246000fd5b60200201818152505073__$86e0c54df1042e28bf2dd20ccf184dc428$__6329a5f2f6826040518263ffffffff1660e01b815260040161019f9190610c17565b60206040518083038186803b1580156101b757600080fd5b505af41580156101cb573d6000803e3d6000fd5b505050506040513d601f19601f820116820180604052508101906101ef9190610ace565b91505092915050565b600080600b67ffffffffffffffff81111561023c577f4e487b7100000000000000000000000000000000000000000000000000000000600052604160045260246000fd5b60405190808252806020026020018201604052801561026a5781602001602082028036833780820191505090505b5090506102756108f8565b61027d6108f8565b60005b8551811015610322578581815181106102c2577f4e487b7100000000000000000000000000000000000000000000000000000000600052603260045260246000fd5b6020026020010151848281518110610303577f4e487b7100000000000000000000000000000000000000000000000000000000600052603260045260246000fd5b602002602001018181525050808061031a90610dca565b915050610280565b506000855190505b600b81101561038d57600084828151811061036e577f4e487b7100000000000000000000000000000000000000000000000000000000600052603260045260246000fd5b602002602001018181525050808061038590610dca565b91505061032a565b5060005b60058110156104bf578381815181106103d3577f4e487b7100000000000000000000000000000000000000000000000000000000600052603260045260246000fd5b6020026020010151838260058110610414577f4e487b7100000000000000000000000000000000000000000000000000000000600052603260045260246000fd5b6020020181815250508360058261042b9190610d39565b81518110610462577f4e487b7100000000000000000000000000000000000000000000000000000000600052603260045260246000fd5b60200260200101518282600581106104a3577f4e487b7100000000000000000000000000000000000000000000000000000000600052603260045260246000fd5b60200201818152505080806104b790610dca565b915050610391565b506104c86108d6565b73__$223301b175b06473d424a7afc957d4e96c$__634937a258846040518263ffffffff1660e01b81526004016104ff9190610c32565b60206040518083038186803b15801561051757600080fd5b505af415801561052b573d6000803e3d6000fd5b505050506040513d601f19601f8201168201806040525081019061054f9190610ace565b81600060028110610589577f4e487b7100000000000000000000000000000000000000000000000000000000600052603260045260246000fd5b60200201818152505073__$223301b175b06473d424a7afc957d4e96c$__634937a258836040518263ffffffff1660e01b81526004016105c99190610c32565b60206040518083038186803b1580156105e157600080fd5b505af41580156105f5573d6000803e3d6000fd5b505050506040513d601f19601f820116820180604052508101906106199190610ace565b81600160028110610653577f4e487b7100000000000000000000000000000000000000000000000000000000600052603260045260246000fd5b6020020181815250506106646108d6565b73__$86e0c54df1042e28bf2dd20ccf184dc428$__6329a5f2f6836040518263ffffffff1660e01b815260040161069b9190610c17565b60206040518083038186803b1580156106b357600080fd5b505af41580156106c7573d6000803e3d6000fd5b505050506040513d601f19601f820116820180604052508101906106eb9190610ace565b81600060028110610725577f4e487b7100000000000000000000000000000000000000000000000000000000600052603260045260246000fd5b60200201818152505084600a81518110610768577f4e487b7100000000000000000000000000000000000000000000000000000000600052603260045260246000fd5b6020026020010151816001600281106107aa577f4e487b7100000000000000000000000000000000000000000000000000000000600052603260045260246000fd5b60200201818152505073__$86e0c54df1042e28bf2dd20ccf184dc428$__6329a5f2f6826040518263ffffffff1660e01b81526004016107ea9190610c17565b60206040518083038186803b15801561080257600080fd5b505af4158015610816573d6000803e3d6000fd5b505050506040513d601f19601f8201168201806040525081019061083a9190610ace565b95505050505050919050565b600073__$223301b175b06473d424a7afc957d4e96c$__634937a258836040518263ffffffff1660e01b815260040161087f9190610c32565b60206040518083038186803b15801561089757600080fd5b505af41580156108ab573d6000803e3d6000fd5b505050506040513d601f19601f820116820180604052508101906108cf9190610ace565b9050919050565b6040518060400160405280600290602082028036833780820191505090505090565b6040518060a00160405280600590602082028036833780820191505090505090565b600061092d61092884610c8d565b610c68565b9050808285602086028201111561094357600080fd5b60005b8581101561097357816109598882610a3a565b845260208401935060208301925050600181019050610946565b5050509392505050565b600061099061098b84610cb3565b610c68565b905080838252602082019050828560208602820111156109af57600080fd5b60005b858110156109df57816109c58882610a3a565b8452602084019350602083019250506001810190506109b2565b5050509392505050565b600082601f8301126109fa57600080fd5b6005610a0784828561091a565b91505092915050565b600082601f830112610a2157600080fd5b8135610a3184826020860161097d565b91505092915050565b600081359050610a4981610e82565b92915050565b600081519050610a5e81610e82565b92915050565b600060a08284031215610a7657600080fd5b6000610a84848285016109e9565b91505092915050565b600060208284031215610a9f57600080fd5b600082013567ffffffffffffffff811115610ab957600080fd5b610ac584828501610a10565b91505092915050565b600060208284031215610ae057600080fd5b6000610aee84828501610a4f565b91505092915050565b60008060408385031215610b0a57600080fd5b6000610b1885828601610a3a565b9250506020610b2985828601610a3a565b9150509250929050565b6000610b3f8383610c08565b60208301905092915050565b610b5481610cf3565b610b5e8184610d23565b9250610b6982610cdf565b8060005b83811015610b9a578151610b818782610b33565b9650610b8c83610d09565b925050600181019050610b6d565b505050505050565b610bab81610cfe565b610bb58184610d2e565b9250610bc082610ce9565b8060005b83811015610bf1578151610bd88782610b33565b9650610be383610d16565b925050600181019050610bc4565b505050505050565b610c0281610d8f565b82525050565b610c1181610d8f565b82525050565b6000604082019050610c2c6000830184610b4b565b92915050565b600060a082019050610c476000830184610ba2565b92915050565b6000602082019050610c626000830184610bf9565b92915050565b6000610c72610c83565b9050610c7e8282610d99565b919050565b6000604051905090565b600067ffffffffffffffff821115610ca857610ca7610e42565b5b602082029050919050565b600067ffffffffffffffff821115610cce57610ccd610e42565b5b602082029050602081019050919050565b6000819050919050565b6000819050919050565b600060029050919050565b600060059050919050565b6000602082019050919050565b6000602082019050919050565b600081905092915050565b600081905092915050565b6000610d4482610d8f565b9150610d4f83610d8f565b9250827fffffffffffffffffffffffffffffffffffffffffffffffffffffffffffffffff03821115610d8457610d83610e13565b5b828201905092915050565b6000819050919050565b610da282610e71565b810181811067ffffffffffffffff82111715610dc157610dc0610e42565b5b80604052505050565b6000610dd582610d8f565b91507fffffffffffffffffffffffffffffffffffffffffffffffffffffffffffffffff821415610e0857610e07610e13565b5b600182019050919050565b7f4e487b7100000000000000000000000000000000000000000000000000000000600052601160045260246000fd5b7f4e487b7100000000000000000000000000000000000000000000000000000000600052604160045260246000fd5b6000601f19601f8301169050919050565b610e8b81610d8f565b8114610e9657600080fd5b5056fea26469706673582212204a35427d7d511db535ae63c168204b66f89078bfa708748be46412d43311cd8f64736f6c63430008040033",
  "linkReferences": {
    "contracts/Poseidon.sol": {
      "PoseidonT3": [
        {
          "length": 20,
          "start": 394
        },
        {
          "length": 20,
          "start": 1670
        },
        {
          "length": 20,
          "start": 2005
        }
      ],
      "PoseidonT6": [
        {
          "length": 20,
          "start": 1258
        },
        {
          "length": 20,
          "start": 1460
        },
        {
          "length": 20,
          "start": 2154
        }
      ]
    }
  },
  "deployedLinkReferences": {
    "contracts/Poseidon.sol": {
      "PoseidonT3": [
        {
          "length": 20,
          "start": 362
        },
        {
          "length": 20,
          "start": 1638
        },
        {
          "length": 20,
          "start": 1973
        }
      ],
      "PoseidonT6": [
        {
          "length": 20,
          "start": 1226
        },
        {
          "length": 20,
          "start": 1428
        },
        {
          "length": 20,
          "start": 2122
        }
      ]
    }
  }
}