{
  "_format": "hh-sol-artifact-1",
  "contractName": "IncrementalQuinTree",
  "sourceName": "contracts/IncrementalMerkleTree.sol",
  "abi": [
    {
      "inputs": [
        {
          "internalType": "uint8",
          "name": "_treeLevels",
          "type": "uint8"
        },
        {
          "internalType": "uint256",
          "name": "_zeroValue",
          "type": "uint256"
        }
      ],
      "stateMutability": "nonpayable",
      "type": "constructor"
    },
    {
      "anonymous": false,
      "inputs": [
        {
          "indexed": true,
          "internalType": "uint256",
          "name": "leaf",
          "type": "uint256"
        },
        {
          "indexed": true,
          "internalType": "uint256",
          "name": "leafIndex",
          "type": "uint256"
        }
      ],
      "name": "LeafInsertion",
      "type": "event"
    },
    {
      "anonymous": false,
      "inputs": [
        {
          "indexed": true,
          "internalType": "address",
          "name": "previousOwner",
          "type": "address"
        },
        {
          "indexed": true,
          "internalType": "address",
          "name": "newOwner",
          "type": "address"
        }
      ],
      "name": "OwnershipTransferred",
      "type": "event"
    },
    {
      "inputs": [
        {
          "internalType": "uint256[]",
          "name": "array",
          "type": "uint256[]"
        }
      ],
      "name": "hash11",
      "outputs": [
        {
          "internalType": "uint256",
          "name": "",
          "type": "uint256"
        }
      ],
      "stateMutability": "pure",
      "type": "function"
    },
    {
      "inputs": [
        {
          "internalType": "uint256[5]",
          "name": "array",
          "type": "uint256[5]"
        }
      ],
      "name": "hash5",
      "outputs": [
        {
          "internalType": "uint256",
          "name": "",
          "type": "uint256"
        }
      ],
      "stateMutability": "pure",
      "type": "function"
    },
    {
      "inputs": [
        {
          "internalType": "uint256",
          "name": "_left",
          "type": "uint256"
        },
        {
          "internalType": "uint256",
          "name": "_right",
          "type": "uint256"
        }
      ],
      "name": "hashLeftRight",
      "outputs": [
        {
          "internalType": "uint256",
          "name": "",
          "type": "uint256"
        }
      ],
      "stateMutability": "pure",
      "type": "function"
    },
    {
      "inputs": [
        {
          "internalType": "uint256",
          "name": "_leaf",
          "type": "uint256"
        }
      ],
      "name": "insertLeaf",
      "outputs": [
        {
          "internalType": "uint256",
          "name": "",
          "type": "uint256"
        }
      ],
      "stateMutability": "nonpayable",
      "type": "function"
    },
    {
      "inputs": [],
      "name": "isOwner",
      "outputs": [
        {
          "internalType": "bool",
          "name": "",
          "type": "bool"
        }
      ],
      "stateMutability": "view",
      "type": "function"
    },
    {
      "inputs": [],
      "name": "owner",
      "outputs": [
        {
          "internalType": "address",
          "name": "",
          "type": "address"
        }
      ],
      "stateMutability": "view",
      "type": "function"
    },
    {
      "inputs": [],
      "name": "renounceOwnership",
      "outputs": [],
      "stateMutability": "nonpayable",
      "type": "function"
    },
    {
      "inputs": [],
      "name": "root",
      "outputs": [
        {
          "internalType": "uint256",
          "name": "",
          "type": "uint256"
        }
      ],
      "stateMutability": "view",
      "type": "function"
    },
    {
      "inputs": [
        {
          "internalType": "uint256",
          "name": "",
          "type": "uint256"
        }
      ],
      "name": "rootHistory",
      "outputs": [
        {
          "internalType": "bool",
          "name": "",
          "type": "bool"
        }
      ],
      "stateMutability": "view",
      "type": "function"
    },
    {
      "inputs": [
        {
          "internalType": "address",
          "name": "newOwner",
          "type": "address"
        }
      ],
      "name": "transferOwnership",
      "outputs": [],
      "stateMutability": "nonpayable",
      "type": "function"
    }
  ],
  "bytecode": "0x608060405260006001553480156200001657600080fd5b50604051620021e9380380620021e983398181016040528101906200003c919062000369565b336000806101000a81548173ffffffffffffffffffffffffffffffffffffffff021916908373ffffffffffffffffffffffffffffffffffffffff16021790555060008054906101000a900473ffffffffffffffffffffffffffffffffffffffff1673ffffffffffffffffffffffffffffffffffffffff16600073ffffffffffffffffffffffffffffffffffffffff167f8be0079c531659141344cd1fd0a4f28419497f9722a3daafe3b4186f6b6457e060405160405180910390a360008260ff16118015620001125750602060ff168260ff1611155b62000154576040517f08c379a00000000000000000000000000000000000000000000000000000000081526004016200014b906200047c565b60405180910390fd5b81600060146101000a81548160ff021916908360ff16021790555060008190506200017e620002ed565b60005b8460ff168160ff161015620002455760005b600560ff168160ff161015620002005783838260ff1660058110620001e1577f4e487b7100000000000000000000000000000000000000000000000000000000600052603260045260246000fd5b6020020181815250508080620001f790620004f3565b91505062000193565b5082600360008360ff168152602001908152602001600020819055506200022d826200025760201b60201c565b925080806200023c90620004f3565b91505062000181565b508160028190555050505050620005d4565b600073__$223301b175b06473d424a7afc957d4e96c$__634937a258836040518263ffffffff1660e01b81526004016200029291906200045f565b60206040518083038186803b158015620002ab57600080fd5b505af4158015620002c0573d6000803e3d6000fd5b505050506040513d601f19601f82011682018060405250810190620002e691906200033d565b9050919050565b6040518060a00160405280600590602082028036833780820191505090505090565b6000815190506200032081620005a0565b92915050565b6000815190506200033781620005ba565b92915050565b6000602082840312156200035057600080fd5b600062000360848285016200030f565b91505092915050565b600080604083850312156200037d57600080fd5b60006200038d8582860162000326565b9250506020620003a0858286016200030f565b9150509250929050565b6000620003b883836200044e565b60208301905092915050565b620003cf81620004a8565b620003db8184620004c0565b9250620003e8826200049e565b8060005b838110156200041f578151620004038782620003aa565b96506200041083620004b3565b925050600181019050620003ec565b505050505050565b600062000436603983620004cb565b9150620004438262000551565b604082019050919050565b6200045981620004dc565b82525050565b600060a082019050620004766000830184620003c4565b92915050565b60006020820190508181036000830152620004978162000427565b9050919050565b6000819050919050565b600060059050919050565b6000602082019050919050565b600081905092915050565b600082825260208201905092915050565b6000819050919050565b600060ff82169050919050565b60006200050082620004e6565b915060ff82141562000517576200051662000522565b5b600182019050919050565b7f4e487b7100000000000000000000000000000000000000000000000000000000600052601160045260246000fd5b7f496e6372656d656e74616c5175696e547265653a205f747265654c6576656c7360008201527f206d757374206265206265747765656e203020616e6420333300000000000000602082015250565b620005ab81620004dc565b8114620005b757600080fd5b50565b620005c581620004e6565b8114620005d157600080fd5b50565b611c0580620005e46000396000f3fe608060405234801561001057600080fd5b506004361061009e5760003560e01c80639cfced97116100665780639cfced9714610149578063b720243414610179578063ebf0c717146101a9578063f1c621ee146101c7578063f2fde38b146101f75761009e565b80635bb93995146100a3578063715018a6146100d35780638a1a52d2146100dd5780638da5cb5b1461010d5780638f32d59b1461012b575b600080fd5b6100bd60048036038101906100b891906112e5565b610213565b6040516100ca919061159b565b60405180910390f35b6100db610335565b005b6100f760048036038101906100f29190611252565b61043a565b604051610104919061159b565b60405180910390f35b610115610a88565b60405161012291906114af565b60405180910390f35b610133610ab1565b6040516101409190611500565b60405180910390f35b610163600480360381019061015e9190611229565b610b08565b604051610170919061159b565b60405180910390f35b610193600480360381019061018e9190611293565b610b98565b6040516101a0919061159b565b60405180910390f35b6101b1610eb7565b6040516101be919061159b565b60405180910390f35b6101e160048036038101906101dc9190611293565b610ebd565b6040516101ee9190611500565b60405180910390f35b610211600480360381019061020c9190611200565b610edd565b005b600061021d61105d565b8381600060028110610258577f4e487b7100000000000000000000000000000000000000000000000000000000600052603260045260246000fd5b602002018181525050828160016002811061029c577f4e487b7100000000000000000000000000000000000000000000000000000000600052603260045260246000fd5b60200201818152505073__$86e0c54df1042e28bf2dd20ccf184dc428$__6329a5f2f6826040518263ffffffff1660e01b81526004016102dc91906114ca565b60206040518083038186803b1580156102f457600080fd5b505af4158015610308573d6000803e3d6000fd5b505050506040513d601f19601f8201168201806040525081019061032c91906112bc565b91505092915050565b61033d610ab1565b61037c576040517f08c379a00000000000000000000000000000000000000000000000000000000081526004016103739061155b565b60405180910390fd5b600073ffffffffffffffffffffffffffffffffffffffff1660008054906101000a900473ffffffffffffffffffffffffffffffffffffffff1673ffffffffffffffffffffffffffffffffffffffff167f8be0079c531659141344cd1fd0a4f28419497f9722a3daafe3b4186f6b6457e060405160405180910390a360008060006101000a81548173ffffffffffffffffffffffffffffffffffffffff021916908373ffffffffffffffffffffffffffffffffffffffff160217905550565b600080600b67ffffffffffffffff81111561047e577f4e487b7100000000000000000000000000000000000000000000000000000000600052604160045260246000fd5b6040519080825280602002602001820160405280156104ac5781602001602082028036833780820191505090505b5090506104b761107f565b6104bf61107f565b60005b855181101561056457858181518110610504577f4e487b7100000000000000000000000000000000000000000000000000000000600052603260045260246000fd5b6020026020010151848281518110610545577f4e487b7100000000000000000000000000000000000000000000000000000000600052603260045260246000fd5b602002602001018181525050808061055c90611916565b9150506104c2565b506000855190505b600b8110156105cf5760008482815181106105b0577f4e487b7100000000000000000000000000000000000000000000000000000000600052603260045260246000fd5b60200260200101818152505080806105c790611916565b91505061056c565b5060005b600581101561070157838181518110610615577f4e487b7100000000000000000000000000000000000000000000000000000000600052603260045260246000fd5b6020026020010151838260058110610656577f4e487b7100000000000000000000000000000000000000000000000000000000600052603260045260246000fd5b6020020181815250508360058261066d9190611698565b815181106106a4577f4e487b7100000000000000000000000000000000000000000000000000000000600052603260045260246000fd5b60200260200101518282600581106106e5577f4e487b7100000000000000000000000000000000000000000000000000000000600052603260045260246000fd5b60200201818152505080806106f990611916565b9150506105d3565b5061070a61105d565b73__$223301b175b06473d424a7afc957d4e96c$__634937a258846040518263ffffffff1660e01b815260040161074191906114e5565b60206040518083038186803b15801561075957600080fd5b505af415801561076d573d6000803e3d6000fd5b505050506040513d601f19601f8201168201806040525081019061079191906112bc565b816000600281106107cb577f4e487b7100000000000000000000000000000000000000000000000000000000600052603260045260246000fd5b60200201818152505073__$223301b175b06473d424a7afc957d4e96c$__634937a258836040518263ffffffff1660e01b815260040161080b91906114e5565b60206040518083038186803b15801561082357600080fd5b505af4158015610837573d6000803e3d6000fd5b505050506040513d601f19601f8201168201806040525081019061085b91906112bc565b81600160028110610895577f4e487b7100000000000000000000000000000000000000000000000000000000600052603260045260246000fd5b6020020181815250506108a661105d565b73__$86e0c54df1042e28bf2dd20ccf184dc428$__6329a5f2f6836040518263ffffffff1660e01b81526004016108dd91906114ca565b60206040518083038186803b1580156108f557600080fd5b505af4158015610909573d6000803e3d6000fd5b505050506040513d601f19601f8201168201806040525081019061092d91906112bc565b81600060028110610967577f4e487b7100000000000000000000000000000000000000000000000000000000600052603260045260246000fd5b60200201818152505084600a815181106109aa577f4e487b7100000000000000000000000000000000000000000000000000000000600052603260045260246000fd5b6020026020010151816001600281106109ec577f4e487b7100000000000000000000000000000000000000000000000000000000600052603260045260246000fd5b60200201818152505073__$86e0c54df1042e28bf2dd20ccf184dc428$__6329a5f2f6826040518263ffffffff1660e01b8152600401610a2c91906114ca565b60206040518083038186803b158015610a4457600080fd5b505af4158015610a58573d6000803e3d6000fd5b505050506040513d601f19601f82011682018060405250810190610a7c91906112bc565b95505050505050919050565b60008060009054906101000a900473ffffffffffffffffffffffffffffffffffffffff16905090565b60008060009054906101000a900473ffffffffffffffffffffffffffffffffffffffff1673ffffffffffffffffffffffffffffffffffffffff163373ffffffffffffffffffffffffffffffffffffffff1614905090565b600073__$223301b175b06473d424a7afc957d4e96c$__634937a258836040518263ffffffff1660e01b8152600401610b4191906114e5565b60206040518083038186803b158015610b5957600080fd5b505af4158015610b6d573d6000803e3d6000fd5b505050506040513d601f19601f82011682018060405250810190610b9191906112bc565b9050919050565b60007f30644e72e131a029b85045b68181585d2833e84879b9709143e1f593f00000018210610bfc576040517f08c379a0000000000000000000000000000000000000000000000000000000008152600401610bf39061153b565b60405180910390fd5b600060149054906101000a900460ff1660ff16600560ff16610c1e9190611772565b60015410610c61576040517f08c379a0000000000000000000000000000000000000000000000000000000008152600401610c589061157b565b60405180910390fd5b600060015490506000839050610c7561107f565b6000600560ff1684610c879190611989565b905060005b600060149054906101000a900460ff1660ff168160ff161015610e26576000821415610d22576000600190505b600560ff168160ff161015610d2057600360008360ff16815260200190815260200160002054600460008460ff16815260200190815260200160002060008360ff168152602001908152602001600020819055508080610d189061195f565b915050610cb9565b505b83600460008360ff16815260200190815260200160002060008481526020019081526020016000208190555060005b600560ff168160ff161015610de357600460008360ff16815260200190815260200160002060008260ff16815260200190815260200160002054848260ff1660058110610dc7577f4e487b7100000000000000000000000000000000000000000000000000000000600052603260045260246000fd5b6020020181815250508080610ddb9061195f565b915050610d51565b50610ded83610b08565b9350600560ff1685610dff91906116ee565b9450600560ff1685610e119190611989565b91508080610e1e9061195f565b915050610c8c565b5082600281905550600160056000600254815260200190815260200160002060006101000a81548160ff021916908315150217905550600060015490506001806000828254610e759190611698565b9250508190555080877fe6f49fa84abd31919f446b22a52bb3ceae774b4b87f062f022fec45c46f4f45860405160405180910390a38495505050505050919050565b60025481565b60056020528060005260406000206000915054906101000a900460ff1681565b610ee5610ab1565b610f24576040517f08c379a0000000000000000000000000000000000000000000000000000000008152600401610f1b9061155b565b60405180910390fd5b610f2d81610f30565b50565b600073ffffffffffffffffffffffffffffffffffffffff168173ffffffffffffffffffffffffffffffffffffffff161415610fa0576040517f08c379a0000000000000000000000000000000000000000000000000000000008152600401610f979061151b565b60405180910390fd5b8073ffffffffffffffffffffffffffffffffffffffff1660008054906101000a900473ffffffffffffffffffffffffffffffffffffffff1673ffffffffffffffffffffffffffffffffffffffff167f8be0079c531659141344cd1fd0a4f28419497f9722a3daafe3b4186f6b6457e060405160405180910390a3806000806101000a81548173ffffffffffffffffffffffffffffffffffffffff021916908373ffffffffffffffffffffffffffffffffffffffff16021790555050565b6040518060400160405280600290602082028036833780820191505090505090565b6040518060a00160405280600590602082028036833780820191505090505090565b60006110b46110af846115db565b6115b6565b905080828560208602820111156110ca57600080fd5b60005b858110156110fa57816110e088826111d6565b8452602084019350602083019250506001810190506110cd565b5050509392505050565b600061111761111284611601565b6115b6565b9050808382526020820190508285602086028201111561113657600080fd5b60005b85811015611166578161114c88826111d6565b845260208401935060208301925050600181019050611139565b5050509392505050565b60008135905061117f81611ba1565b92915050565b600082601f83011261119657600080fd5b60056111a38482856110a1565b91505092915050565b600082601f8301126111bd57600080fd5b81356111cd848260208601611104565b91505092915050565b6000813590506111e581611bb8565b92915050565b6000815190506111fa81611bb8565b92915050565b60006020828403121561121257600080fd5b600061122084828501611170565b91505092915050565b600060a0828403121561123b57600080fd5b600061124984828501611185565b91505092915050565b60006020828403121561126457600080fd5b600082013567ffffffffffffffff81111561127e57600080fd5b61128a848285016111ac565b91505092915050565b6000602082840312156112a557600080fd5b60006112b3848285016111d6565b91505092915050565b6000602082840312156112ce57600080fd5b60006112dc848285016111eb565b91505092915050565b600080604083850312156112f857600080fd5b6000611306858286016111d6565b9250506020611317858286016111d6565b9150509250929050565b600061132d83836114a0565b60208301905092915050565b61134281611890565b82525050565b61135181611641565b61135b8184611671565b92506113668261162d565b8060005b8381101561139757815161137e8782611321565b965061138983611657565b92505060018101905061136a565b505050505050565b6113a88161164c565b6113b2818461167c565b92506113bd82611637565b8060005b838110156113ee5781516113d58782611321565b96506113e083611664565b9250506001810190506113c1565b505050505050565b6113ff816118a2565b82525050565b6000611412602683611687565b915061141d82611a65565b604082019050919050565b6000611435604583611687565b915061144082611ab4565b606082019050919050565b6000611458602083611687565b915061146382611b29565b602082019050919050565b600061147b602183611687565b915061148682611b52565b604082019050919050565b61149a816118ce565b82525050565b6114a9816118ce565b82525050565b60006020820190506114c46000830184611339565b92915050565b60006040820190506114df6000830184611348565b92915050565b600060a0820190506114fa600083018461139f565b92915050565b600060208201905061151560008301846113f6565b92915050565b6000602082019050818103600083015261153481611405565b9050919050565b6000602082019050818103600083015261155481611428565b9050919050565b600060208201905081810360008301526115748161144b565b9050919050565b600060208201905081810360008301526115948161146e565b9050919050565b60006020820190506115b06000830184611491565b92915050565b60006115c06115d1565b90506115cc82826118e5565b919050565b6000604051905090565b600067ffffffffffffffff8211156115f6576115f5611a18565b5b602082029050919050565b600067ffffffffffffffff82111561161c5761161b611a18565b5b602082029050602081019050919050565b6000819050919050565b6000819050919050565b600060029050919050565b600060059050919050565b6000602082019050919050565b6000602082019050919050565b600081905092915050565b600081905092915050565b600082825260208201905092915050565b60006116a3826118ce565b91506116ae836118ce565b9250827fffffffffffffffffffffffffffffffffffffffffffffffffffffffffffffffff038211156116e3576116e26119ba565b5b828201905092915050565b60006116f9826118ce565b9150611704836118ce565b925082611714576117136119e9565b5b828204905092915050565b6000808291508390505b600185111561176957808604811115611745576117446119ba565b5b60018516156117545780820291505b808102905061176285611a58565b9450611729565b94509492505050565b600061177d826118ce565b9150611788836118ce565b92506117b57fffffffffffffffffffffffffffffffffffffffffffffffffffffffffffffffff84846117bd565b905092915050565b6000826117cd5760019050611889565b816117db5760009050611889565b81600181146117f157600281146117fb5761182a565b6001915050611889565b60ff84111561180d5761180c6119ba565b5b8360020a915084821115611824576118236119ba565b5b50611889565b5060208310610133831016604e8410600b841016171561185f5782820a90508381111561185a576118596119ba565b5b611889565b61186c848484600161171f565b92509050818404811115611883576118826119ba565b5b81810290505b9392505050565b600061189b826118ae565b9050919050565b60008115159050919050565b600073ffffffffffffffffffffffffffffffffffffffff82169050919050565b6000819050919050565b600060ff82169050919050565b6118ee82611a47565b810181811067ffffffffffffffff8211171561190d5761190c611a18565b5b80604052505050565b6000611921826118ce565b91507fffffffffffffffffffffffffffffffffffffffffffffffffffffffffffffffff821415611954576119536119ba565b5b600182019050919050565b600061196a826118d8565b915060ff82141561197e5761197d6119ba565b5b600182019050919050565b6000611994826118ce565b915061199f836118ce565b9250826119af576119ae6119e9565b5b828206905092915050565b7f4e487b7100000000000000000000000000000000000000000000000000000000600052601160045260246000fd5b7f4e487b7100000000000000000000000000000000000000000000000000000000600052601260045260246000fd5b7f4e487b7100000000000000000000000000000000000000000000000000000000600052604160045260246000fd5b6000601f19601f8301169050919050565b60008160011c9050919050565b7f4f776e61626c653a206e6577206f776e657220697320746865207a65726f206160008201527f6464726573730000000000000000000000000000000000000000000000000000602082015250565b7f496e6372656d656e74616c5175696e547265653a20696e736572744c6561662060008201527f617267756d656e74206d757374206265203c20534e41524b5f5343414c41525f60208201527f4649454c44000000000000000000000000000000000000000000000000000000604082015250565b7f4f776e61626c653a2063616c6c6572206973206e6f7420746865206f776e6572600082015250565b7f496e6372656d656e74616c5175696e547265653a20747265652069732066756c60008201527f6c00000000000000000000000000000000000000000000000000000000000000602082015250565b611baa81611890565b8114611bb557600080fd5b50565b611bc1816118ce565b8114611bcc57600080fd5b5056fea2646970667358221220872862519c5f25692de0eda786866d4c6c012d5d859168c893a856337e55e49064736f6c63430008040033",
  "linkReferences": {
    "contracts/Poseidon.sol": {
      "PoseidonT3": [
        {
          "length": 20,
          "start": 2187
        },
        {
          "length": 20,
          "start": 3724
        },
        {
          "length": 20,
          "start": 4059
        }
      ],
      "PoseidonT6": [
        {
          "length": 20,
          "start": 603
        },
        {
          "length": 20,
          "start": 3312
        },
        {
          "length": 20,
          "start": 3514
        },
        {
          "length": 20,
          "start": 4336
        }
      ]
    }
  },
  "deployedLinkReferences": {
    "contracts/Poseidon.sol": {
      "PoseidonT3": [
        {
          "length": 20,
          "start": 679
        },
        {
          "length": 20,
          "start": 2216
        },
        {
          "length": 20,
          "start": 2551
        }
      ],
      "PoseidonT6": [
        {
          "length": 20,
          "start": 1804
        },
        {
          "length": 20,
          "start": 2006
        },
        {
          "length": 20,
          "start": 2828
        }
      ]
    }
  }
}