{
  "_format": "hh-sol-artifact-1",
  "contractName": "Semaphore",
  "sourceName": "contracts/Semaphore.sol",
  "abi": [
    {
      "inputs": [
        {
          "internalType": "uint8",
          "name": "_treeLevels",
          "type": "uint8"
        },
        {
          "internalType": "uint232",
          "name": "_firstExternalNullifier",
          "type": "uint232"
        },
        {
          "internalType": "contract IVerifier",
          "name": "_verifier",
          "type": "address"
        }
      ],
      "stateMutability": "nonpayable",
      "type": "constructor"
    },
    {
      "anonymous": false,
      "inputs": [
        {
          "indexed": true,
          "internalType": "uint232",
          "name": "externalNullifier",
          "type": "uint232"
        }
      ],
      "name": "ExternalNullifierAdd",
      "type": "event"
    },
    {
      "anonymous": false,
      "inputs": [
        {
          "indexed": true,
          "internalType": "uint232",
          "name": "externalNullifier",
          "type": "uint232"
        },
        {
          "indexed": true,
          "internalType": "bool",
          "name": "active",
          "type": "bool"
        }
      ],
      "name": "ExternalNullifierChangeStatus",
      "type": "event"
    },
    {
      "anonymous": false,
      "inputs": [
        {
          "indexed": true,
          "internalType": "uint256",
          "name": "leaf",
          "type": "uint256"
        },
        {
          "indexed": true,
          "internalType": "uint256",
          "name": "leafIndex",
          "type": "uint256"
        }
      ],
      "name": "LeafInsertion",
      "type": "event"
    },
    {
      "anonymous": false,
      "inputs": [
        {
          "indexed": true,
          "internalType": "address",
          "name": "previousOwner",
          "type": "address"
        },
        {
          "indexed": true,
          "internalType": "address",
          "name": "newOwner",
          "type": "address"
        }
      ],
      "name": "OwnershipTransferred",
      "type": "event"
    },
    {
      "anonymous": false,
      "inputs": [
        {
          "indexed": true,
          "internalType": "bool",
          "name": "newPermission",
          "type": "bool"
        }
      ],
      "name": "PermissionSet",
      "type": "event"
    },
    {
      "inputs": [],
      "name": "NOTHING_UP_MY_SLEEVE_ZERO",
      "outputs": [
        {
          "internalType": "uint256",
          "name": "",
          "type": "uint256"
        }
      ],
      "stateMutability": "view",
      "type": "function"
    },
    {
      "inputs": [
        {
          "internalType": "uint232",
          "name": "_externalNullifier",
          "type": "uint232"
        }
      ],
      "name": "addExternalNullifier",
      "outputs": [],
      "stateMutability": "nonpayable",
      "type": "function"
    },
    {
      "inputs": [
        {
          "internalType": "bytes",
          "name": "_signal",
          "type": "bytes"
        },
        {
          "internalType": "uint256[8]",
          "name": "_proof",
          "type": "uint256[8]"
        },
        {
          "internalType": "uint256",
          "name": "_root",
          "type": "uint256"
        },
        {
          "internalType": "uint256",
          "name": "_nullifiersHash",
          "type": "uint256"
        },
        {
          "internalType": "uint232",
          "name": "_externalNullifier",
          "type": "uint232"
        }
      ],
      "name": "broadcastSignal",
      "outputs": [],
      "stateMutability": "nonpayable",
      "type": "function"
    },
    {
      "inputs": [
        {
          "internalType": "uint232",
          "name": "_externalNullifier",
          "type": "uint232"
        }
      ],
      "name": "deactivateExternalNullifier",
      "outputs": [],
      "stateMutability": "nonpayable",
      "type": "function"
    },
    {
      "inputs": [
        {
          "internalType": "uint232",
          "name": "",
          "type": "uint232"
        }
      ],
      "name": "externalNullifierLinkedList",
      "outputs": [
        {
          "internalType": "uint232",
          "name": "next",
          "type": "uint232"
        },
        {
          "internalType": "bool",
          "name": "exists",
          "type": "bool"
        },
        {
          "internalType": "bool",
          "name": "isActive",
          "type": "bool"
        }
      ],
      "stateMutability": "view",
      "type": "function"
    },
    {
      "inputs": [],
      "name": "firstExternalNullifier",
      "outputs": [
        {
          "internalType": "uint232",
          "name": "",
          "type": "uint232"
        }
      ],
      "stateMutability": "view",
      "type": "function"
    },
    {
      "inputs": [],
      "name": "getIdentityCommitments",
      "outputs": [
        {
          "internalType": "uint256[]",
          "name": "",
          "type": "uint256[]"
        }
      ],
      "stateMutability": "view",
      "type": "function"
    },
    {
      "inputs": [
        {
          "internalType": "uint232",
          "name": "_externalNullifier",
          "type": "uint232"
        }
      ],
      "name": "getNextExternalNullifier",
      "outputs": [
        {
          "internalType": "uint232",
          "name": "",
          "type": "uint232"
        }
      ],
      "stateMutability": "view",
      "type": "function"
    },
    {
      "inputs": [],
      "name": "getNumIdentityCommitments",
      "outputs": [
        {
          "internalType": "uint256",
          "name": "",
          "type": "uint256"
        }
      ],
      "stateMutability": "view",
      "type": "function"
    },
    {
      "inputs": [
        {
          "internalType": "uint256[]",
          "name": "array",
          "type": "uint256[]"
        }
      ],
      "name": "hash11",
      "outputs": [
        {
          "internalType": "uint256",
          "name": "",
          "type": "uint256"
        }
      ],
      "stateMutability": "pure",
      "type": "function"
    },
    {
      "inputs": [
        {
          "internalType": "uint256[5]",
          "name": "array",
          "type": "uint256[5]"
        }
      ],
      "name": "hash5",
      "outputs": [
        {
          "internalType": "uint256",
          "name": "",
          "type": "uint256"
        }
      ],
      "stateMutability": "pure",
      "type": "function"
    },
    {
      "inputs": [
        {
          "internalType": "uint256",
          "name": "_left",
          "type": "uint256"
        },
        {
          "internalType": "uint256",
          "name": "_right",
          "type": "uint256"
        }
      ],
      "name": "hashLeftRight",
      "outputs": [
        {
          "internalType": "uint256",
          "name": "",
          "type": "uint256"
        }
      ],
      "stateMutability": "pure",
      "type": "function"
    },
    {
      "inputs": [
        {
          "internalType": "uint256",
          "name": "",
          "type": "uint256"
        }
      ],
      "name": "identityCommitments",
      "outputs": [
        {
          "internalType": "uint256",
          "name": "",
          "type": "uint256"
        }
      ],
      "stateMutability": "view",
      "type": "function"
    },
    {
      "inputs": [
        {
          "internalType": "uint256",
          "name": "_identityCommitment",
          "type": "uint256"
        }
      ],
      "name": "insertIdentity",
      "outputs": [],
      "stateMutability": "nonpayable",
      "type": "function"
    },
    {
      "inputs": [
        {
          "internalType": "uint256",
          "name": "_leaf",
          "type": "uint256"
        }
      ],
      "name": "insertLeaf",
      "outputs": [
        {
          "internalType": "uint256",
          "name": "",
          "type": "uint256"
        }
      ],
      "stateMutability": "nonpayable",
      "type": "function"
    },
    {
      "inputs": [],
      "name": "isBroadcastPermissioned",
      "outputs": [
        {
          "internalType": "bool",
          "name": "",
          "type": "bool"
        }
      ],
      "stateMutability": "view",
      "type": "function"
    },
    {
      "inputs": [
        {
          "internalType": "uint232",
          "name": "_externalNullifier",
          "type": "uint232"
        }
      ],
      "name": "isExternalNullifierActive",
      "outputs": [
        {
          "internalType": "bool",
          "name": "",
          "type": "bool"
        }
      ],
      "stateMutability": "view",
      "type": "function"
    },
    {
      "inputs": [],
      "name": "isOwner",
      "outputs": [
        {
          "internalType": "bool",
          "name": "",
          "type": "bool"
        }
      ],
      "stateMutability": "view",
      "type": "function"
    },
    {
      "inputs": [],
      "name": "lastExternalNullifier",
      "outputs": [
        {
          "internalType": "uint232",
          "name": "",
          "type": "uint232"
        }
      ],
      "stateMutability": "view",
      "type": "function"
    },
    {
      "inputs": [
        {
          "internalType": "uint256",
          "name": "",
          "type": "uint256"
        }
      ],
      "name": "nullifierHashHistory",
      "outputs": [
        {
          "internalType": "bool",
          "name": "",
          "type": "bool"
        }
      ],
      "stateMutability": "view",
      "type": "function"
    },
    {
      "inputs": [],
      "name": "numExternalNullifiers",
      "outputs": [
        {
          "internalType": "uint256",
          "name": "",
          "type": "uint256"
        }
      ],
      "stateMutability": "view",
      "type": "function"
    },
    {
      "inputs": [],
      "name": "owner",
      "outputs": [
        {
          "internalType": "address",
          "name": "",
          "type": "address"
        }
      ],
      "stateMutability": "view",
      "type": "function"
    },
    {
      "inputs": [
        {
          "internalType": "uint256[2]",
          "name": "_a",
          "type": "uint256[2]"
        },
        {
          "internalType": "uint256[2][2]",
          "name": "_b",
          "type": "uint256[2][2]"
        },
        {
          "internalType": "uint256[2]",
          "name": "_c",
          "type": "uint256[2]"
        }
      ],
      "name": "packProof",
      "outputs": [
        {
          "internalType": "uint256[8]",
          "name": "",
          "type": "uint256[8]"
        }
      ],
      "stateMutability": "pure",
      "type": "function"
    },
    {
      "inputs": [
        {
          "internalType": "uint232",
          "name": "_externalNullifier",
          "type": "uint232"
        }
      ],
      "name": "reactivateExternalNullifier",
      "outputs": [],
      "stateMutability": "nonpayable",
      "type": "function"
    },
    {
      "inputs": [],
      "name": "renounceOwnership",
      "outputs": [],
      "stateMutability": "nonpayable",
      "type": "function"
    },
    {
      "inputs": [],
      "name": "root",
      "outputs": [
        {
          "internalType": "uint256",
          "name": "",
          "type": "uint256"
        }
      ],
      "stateMutability": "view",
      "type": "function"
    },
    {
      "inputs": [
        {
          "internalType": "uint256",
          "name": "",
          "type": "uint256"
        }
      ],
      "name": "rootHistory",
      "outputs": [
        {
          "internalType": "bool",
          "name": "",
          "type": "bool"
        }
      ],
      "stateMutability": "view",
      "type": "function"
    },
    {
      "inputs": [
        {
          "internalType": "bool",
          "name": "_newPermission",
          "type": "bool"
        }
      ],
      "name": "setPermissioning",
      "outputs": [],
      "stateMutability": "nonpayable",
      "type": "function"
    },
    {
      "inputs": [
        {
          "internalType": "address",
          "name": "newOwner",
          "type": "address"
        }
      ],
      "name": "transferOwnership",
      "outputs": [],
      "stateMutability": "nonpayable",
      "type": "function"
    },
    {
      "inputs": [
        {
          "internalType": "uint256[8]",
          "name": "_proof",
          "type": "uint256[8]"
        }
      ],
      "name": "unpackProof",
      "outputs": [
        {
          "internalType": "uint256[2]",
          "name": "",
          "type": "uint256[2]"
        },
        {
          "internalType": "uint256[2][2]",
          "name": "",
          "type": "uint256[2][2]"
        },
        {
          "internalType": "uint256[2]",
          "name": "",
          "type": "uint256[2]"
        }
      ],
      "stateMutability": "pure",
      "type": "function"
    },
    {
      "inputs": [],
      "name": "verifier",
      "outputs": [
        {
          "internalType": "contract IVerifier",
          "name": "",
          "type": "address"
        }
      ],
      "stateMutability": "view",
      "type": "function"
    }
  ],
  "bytecode": "0x60a0604052600060015560006008556000600960006101000a8154817cffffffffffffffffffffffffffffffffffffffffffffffffffffffffff02191690837cffffffffffffffffffffffffffffffffffffffffffffffffffffffffff1602179055506000600a60006101000a8154817cffffffffffffffffffffffffffffffffffffffffffffffffffffffffff02191690837cffffffffffffffffffffffffffffffffffffffffffffffffffffffffff1602179055506000600a601d6101000a81548160ff0219169083151502179055507f30644e72e131a029b85045b68181585d2833e84879b9709143e1f593f0000001604051602001620001039062000a7c565b6040516020818303038152906040528051906020012060001c62000128919062000c42565b600c553480156200013857600080fd5b5060405162005ad838038062005ad883398181016040528101906200015e919062000923565b82600c54336000806101000a81548173ffffffffffffffffffffffffffffffffffffffff021916908373ffffffffffffffffffffffffffffffffffffffff16021790555060008054906101000a900473ffffffffffffffffffffffffffffffffffffffff1673ffffffffffffffffffffffffffffffffffffffff16600073ffffffffffffffffffffffffffffffffffffffff167f8be0079c531659141344cd1fd0a4f28419497f9722a3daafe3b4186f6b6457e060405160405180910390a360008260ff16118015620002385750602060ff168260ff1611155b6200027a576040517f08c379a0000000000000000000000000000000000000000000000000000000008152600401620002719062000ab0565b60405180910390fd5b81600060146101000a81548160ff021916908360ff1602179055506000819050620002a462000879565b60005b8460ff168160ff1610156200036b5760005b600560ff168160ff161015620003265783838260ff166005811062000307577f4e487b7100000000000000000000000000000000000000000000000000000000600052603260045260246000fd5b60200201818152505080806200031d9062000c13565b915050620002b9565b5082600360008360ff168152602001908152602001600020819055506200035382620003ca60201b60201c565b92508080620003629062000c13565b915050620002a7565b5081600281905550505050508073ffffffffffffffffffffffffffffffffffffffff1660808173ffffffffffffffffffffffffffffffffffffffff1660601b81525050620003c18260016200046060201b60201c565b50505062000e07565b600073__$223301b175b06473d424a7afc957d4e96c$__634937a258836040518263ffffffff1660e01b815260040162000405919062000a93565b60206040518083038186803b1580156200041e57600080fd5b505af415801562000433573d6000803e3d6000fd5b505050506040513d601f19601f82011682018060405250810190620004599190620008f7565b9050919050565b8015620004c05781600960006101000a8154817cffffffffffffffffffffffffffffffffffffffffffffffffffffffffff02191690837cffffffffffffffffffffffffffffffffffffffffffffffffffffffffff1602179055506200063c565b6000151560076000847cffffffffffffffffffffffffffffffffffffffffffffffffffffffffff167cffffffffffffffffffffffffffffffffffffffffffffffffffffffffff168152602001908152602001600020600001601d9054906101000a900460ff161515146200056b576040517f08c379a0000000000000000000000000000000000000000000000000000000008152600401620005629062000ad2565b60405180910390fd5b8160076000600a60009054906101000a90047cffffffffffffffffffffffffffffffffffffffffffffffffffffffffff167cffffffffffffffffffffffffffffffffffffffffffffffffffffffffff167cffffffffffffffffffffffffffffffffffffffffffffffffffffffffff16815260200190815260200160002060000160006101000a8154817cffffffffffffffffffffffffffffffffffffffffffffffffffffffffff02191690837cffffffffffffffffffffffffffffffffffffffffffffffffffffffffff1602179055505b600060076000847cffffffffffffffffffffffffffffffffffffffffffffffffffffffffff167cffffffffffffffffffffffffffffffffffffffffffffffffffffffffff16815260200190815260200160002060000160006101000a8154817cffffffffffffffffffffffffffffffffffffffffffffffffffffffffff02191690837cffffffffffffffffffffffffffffffffffffffffffffffffffffffffff160217905550600160076000847cffffffffffffffffffffffffffffffffffffffffffffffffffffffffff167cffffffffffffffffffffffffffffffffffffffffffffffffffffffffff168152602001908152602001600020600001601e6101000a81548160ff021916908315150217905550600160076000847cffffffffffffffffffffffffffffffffffffffffffffffffffffffffff167cffffffffffffffffffffffffffffffffffffffffffffffffffffffffff168152602001908152602001600020600001601d6101000a81548160ff02191690831515021790555081600a60006101000a8154817cffffffffffffffffffffffffffffffffffffffffffffffffffffffffff02191690837cffffffffffffffffffffffffffffffffffffffffffffffffffffffffff16021790555060086000815480929190620008249062000bc5565b9190505550817cffffffffffffffffffffffffffffffffffffffffffffffffffffffffff167fd1ca56647596090d70fa8d49bcc376b97248314e3f204c491333b3440405f58960405160405180910390a25050565b6040518060a00160405280600590602082028036833780820191505090505090565b600081519050620008ac8162000d9f565b92915050565b600081519050620008c38162000db9565b92915050565b600081519050620008da8162000dd3565b92915050565b600081519050620008f18162000ded565b92915050565b6000602082840312156200090a57600080fd5b60006200091a84828501620008c9565b91505092915050565b6000806000606084860312156200093957600080fd5b60006200094986828701620008e0565b93505060206200095c86828701620008b2565b92505060406200096f868287016200089b565b9150509250925092565b600062000987838362000a6b565b60208301905092915050565b6200099e8162000afe565b620009aa818462000b16565b9250620009b78262000af4565b8060005b83811015620009ee578151620009d2878262000979565b9650620009df8362000b09565b925050600181019050620009bb565b505050505050565b600062000a0560398362000b21565b915062000a128262000cd8565b604082019050919050565b600062000a2c60098362000b32565b915062000a398262000d27565b600982019050919050565b600062000a5360298362000b21565b915062000a608262000d50565b604082019050919050565b62000a768162000bae565b82525050565b600062000a898262000a1d565b9150819050919050565b600060a08201905062000aaa600083018462000993565b92915050565b6000602082019050818103600083015262000acb81620009f6565b9050919050565b6000602082019050818103600083015262000aed8162000a44565b9050919050565b6000819050919050565b600060059050919050565b6000602082019050919050565b600081905092915050565b600082825260208201905092915050565b600081905092915050565b600062000b4a8262000b65565b9050919050565b600062000b5e8262000b3d565b9050919050565b600073ffffffffffffffffffffffffffffffffffffffff82169050919050565b60007cffffffffffffffffffffffffffffffffffffffffffffffffffffffffff82169050919050565b6000819050919050565b600060ff82169050919050565b600062000bd28262000bae565b91507fffffffffffffffffffffffffffffffffffffffffffffffffffffffffffffffff82141562000c085762000c0762000c7a565b5b600182019050919050565b600062000c208262000bb8565b915060ff82141562000c375762000c3662000c7a565b5b600182019050919050565b600062000c4f8262000bae565b915062000c5c8362000bae565b92508262000c6f5762000c6e62000ca9565b5b828206905092915050565b7f4e487b7100000000000000000000000000000000000000000000000000000000600052601160045260246000fd5b7f4e487b7100000000000000000000000000000000000000000000000000000000600052601260045260246000fd5b7f496e6372656d656e74616c5175696e547265653a205f747265654c6576656c7360008201527f206d757374206265206265747765656e203020616e6420333300000000000000602082015250565b7f53656d6170686f72650000000000000000000000000000000000000000000000600082015250565b7f53656d6170686f72653a2065787465726e616c206e756c6c696669657220616c60008201527f7265616479207365740000000000000000000000000000000000000000000000602082015250565b62000daa8162000b51565b811462000db657600080fd5b50565b62000dc48162000b85565b811462000dd057600080fd5b50565b62000dde8162000bae565b811462000dea57600080fd5b50565b62000df88162000bb8565b811462000e0457600080fd5b50565b60805160601c614cab62000e2d600039600081816108ca0152610c720152614cab6000f3fe608060405234801561001057600080fd5b50600436106101e55760003560e01c80638da5cb5b1161010f578063c4cd5596116100a2578063ebf0c71711610071578063ebf0c717146105aa578063f1c621ee146105c8578063f2fde38b146105f8578063f5ab0dd614610614576101e5565b8063c4cd559614610510578063c8cf02da14610540578063ce85bbdb1461055e578063eac4287e1461057a576101e5565b80639cfced97116100de5780639cfced9714610462578063b720243414610492578063ba10b81d146104c2578063c3a3407f146104e0576101e5565b80638da5cb5b146103d85780638f32d59b146103f65780638f6efd00146104145780638fd0de5714610432576101e5565b80635d86faba11610187578063715018a611610156578063715018a6146103505780637a5519f91461035a578063819bd8a51461038c5780638a1a52d2146103a8576101e5565b80635d86faba146102c85780635e05ea17146102e65780636d80efca146103165780636ebf626514610332576101e5565b80632b7ac3f3116101c35780632b7ac3f314610240578063405667901461025e578063539f38b21461027c5780635bb9399514610298576101e5565b80630e57596f146101ea57806323baaa8314610206578063283ebaf414610222575b600080fd5b61020460048036038101906101ff919061359e565b610646565b005b610220600480360381019061021b9190613631565b6109f5565b005b61022a610c5d565b6040516102379190613db9565b60405180910390f35b610248610c70565b6040516102559190613dd4565b60405180910390f35b610266610c94565b6040516102739190613d97565b60405180910390f35b61029660048036038101906102919190613631565b610cec565b005b6102b260048036038101906102ad91906136ac565b610d59565b6040516102bf9190614061565b60405180910390f35b6102d0610e7b565b6040516102dd919061400f565b60405180910390f35b61030060048036038101906102fb9190613468565b610eaa565b60405161030d9190613d7b565b60405180910390f35b610330600480360381019061032b919061365a565b6111dd565b005b61033a6112b7565b6040516103479190614061565b60405180910390f35b6103586112bd565b005b610374600480360381019061036f9190613631565b6113c2565b6040516103839392919061402a565b60405180910390f35b6103a660048036038101906103a19190613631565b61142f565b005b6103c260048036038101906103bd919061350b565b611697565b6040516103cf9190614061565b60405180910390f35b6103e0611ce5565b6040516103ed9190613cab565b60405180910390f35b6103fe611d0e565b60405161040b9190613db9565b60405180910390f35b61041c611d65565b6040516104299190614061565b60405180910390f35b61044c6004803603810190610447919061365a565b611d6b565b6040516104599190614061565b60405180910390f35b61047c600480360381019061047791906134b8565b611d8f565b6040516104899190614061565b60405180910390f35b6104ac60048036038101906104a7919061365a565b611e1f565b6040516104b99190614061565b60405180910390f35b6104ca61213e565b6040516104d79190614061565b60405180910390f35b6104fa60048036038101906104f59190613631565b612148565b604051610507919061400f565b60405180910390f35b61052a6004803603810190610525919061365a565b612325565b6040516105379190613db9565b60405180910390f35b610548612345565b604051610555919061400f565b60405180910390f35b6105786004803603810190610573919061354c565b612374565b005b610594600480360381019061058f9190613631565b612407565b6040516105a19190613db9565b60405180910390f35b6105b2612472565b6040516105bf9190614061565b60405180910390f35b6105e260048036038101906105dd919061365a565b612478565b6040516105ef9190613db9565b60405180910390f35b610612600480360381019061060d919061343f565b612498565b005b61062e600480360381019061062991906134e1565b6124eb565b60405161063d93929190613ce1565b60405180910390f35b600a601d9054906101000a900460ff1615806106665750610665611d0e565b5b6106a5576040517f08c379a000000000000000000000000000000000000000000000000000000000815260040161069c90613f2f565b60405180910390fd5b84848484846106b384612767565b6106f2576040517f08c379a00000000000000000000000000000000000000000000000000000000081526004016106e990613f4f565b60405180910390fd5b60001515600b600084815260200190815260200160002060009054906101000a900460ff16151514610759576040517f08c379a000000000000000000000000000000000000000000000000000000000815260040161075090613f6f565b60405180910390fd5b61076281612407565b6107a1576040517f08c379a000000000000000000000000000000000000000000000000000000000815260040161079890613f8f565b60405180910390fd5b6005600084815260200190815260200160002060009054906101000a900460ff16610801576040517f08c379a00000000000000000000000000000000000000000000000000000000081526004016107f890613e6f565b60405180910390fd5b600061080c86612ab0565b90507f30644e72e131a029b85045b68181585d2833e84879b9709143e1f593f00000018310610870576040517f08c379a000000000000000000000000000000000000000000000000000000000815260040161086790613faf565b60405180910390fd5b60006040518060800160405280868152602001858152602001838152602001847cffffffffffffffffffffffffffffffffffffffffffffffffffffffffff16815250905060008060006108c2896124eb565b9250925092507f000000000000000000000000000000000000000000000000000000000000000073ffffffffffffffffffffffffffffffffffffffff16635fe8c13b848484886040518563ffffffff1660e01b81526004016109279493929190613d19565b602060405180830381600087803b15801561094157600080fd5b505af1158015610955573d6000803e3d6000fd5b505050506040513d601f19601f820116820180604052508101906109799190613575565b6109b8576040517f08c379a00000000000000000000000000000000000000000000000000000000081526004016109af90613e2f565b60405180910390fd5b6001600b60008e815260200190815260200160002060006101000a81548160ff021916908315150217905550505050505050505050505050505050565b600a601d9054906101000a900460ff161580610a155750610a14611d0e565b5b610a54576040517f08c379a0000000000000000000000000000000000000000000000000000000008152600401610a4b90613f2f565b60405180910390fd5b60076000827cffffffffffffffffffffffffffffffffffffffffffffffffffffffffff167cffffffffffffffffffffffffffffffffffffffffffffffffffffffffff168152602001908152602001600020600001601d9054906101000a900460ff16610af5576040517f08c379a0000000000000000000000000000000000000000000000000000000008152600401610aec90613f8f565b60405180910390fd5b6001151560076000837cffffffffffffffffffffffffffffffffffffffffffffffffffffffffff167cffffffffffffffffffffffffffffffffffffffffffffffffffffffffff168152602001908152602001600020600001601e9054906101000a900460ff16151514610b9d576040517f08c379a0000000000000000000000000000000000000000000000000000000008152600401610b9490613eaf565b60405180910390fd5b600060076000837cffffffffffffffffffffffffffffffffffffffffffffffffffffffffff167cffffffffffffffffffffffffffffffffffffffffffffffffffffffffff168152602001908152602001600020600001601e6101000a81548160ff02191690831515021790555060001515817cffffffffffffffffffffffffffffffffffffffffffffffffffffffffff167fb8d2b8a2b352df7f139810483b3c80fc3a4a88711c90bdb7180f1030b7f49acf60405160405180910390a350565b600a601d9054906101000a900460ff1681565b7f000000000000000000000000000000000000000000000000000000000000000081565b60606006805480602002602001604051908101604052809291908181526020018280548015610ce257602002820191906000526020600020905b815481526020019060010190808311610cce575b5050505050905090565b600a601d9054906101000a900460ff161580610d0c5750610d0b611d0e565b5b610d4b576040517f08c379a0000000000000000000000000000000000000000000000000000000008152600401610d4290613f2f565b60405180910390fd5b610d56816000612ac8565b50565b6000610d63613007565b8381600060028110610d9e577f4e487b7100000000000000000000000000000000000000000000000000000000600052603260045260246000fd5b6020020181815250508281600160028110610de2577f4e487b7100000000000000000000000000000000000000000000000000000000600052603260045260246000fd5b60200201818152505073__$86e0c54df1042e28bf2dd20ccf184dc428$__6329a5f2f6826040518263ffffffff1660e01b8152600401610e229190613cc6565b60206040518083038186803b158015610e3a57600080fd5b505af4158015610e4e573d6000803e3d6000fd5b505050506040513d601f19601f82011682018060405250810190610e729190613683565b91505092915050565b600960009054906101000a90047cffffffffffffffffffffffffffffffffffffffffffffffffffffffffff1681565b610eb2613029565b60405180610100016040528085600060028110610ef8577f4e487b7100000000000000000000000000000000000000000000000000000000600052603260045260246000fd5b6020020151815260200185600160028110610f3c577f4e487b7100000000000000000000000000000000000000000000000000000000600052603260045260246000fd5b6020020151815260200184600060028110610f80577f4e487b7100000000000000000000000000000000000000000000000000000000600052603260045260246000fd5b6020020151600060028110610fbe577f4e487b7100000000000000000000000000000000000000000000000000000000600052603260045260246000fd5b6020020151815260200184600060028110611002577f4e487b7100000000000000000000000000000000000000000000000000000000600052603260045260246000fd5b6020020151600160028110611040577f4e487b7100000000000000000000000000000000000000000000000000000000600052603260045260246000fd5b6020020151815260200184600160028110611084577f4e487b7100000000000000000000000000000000000000000000000000000000600052603260045260246000fd5b60200201516000600281106110c2577f4e487b7100000000000000000000000000000000000000000000000000000000600052603260045260246000fd5b6020020151815260200184600160028110611106577f4e487b7100000000000000000000000000000000000000000000000000000000600052603260045260246000fd5b6020020151600160028110611144577f4e487b7100000000000000000000000000000000000000000000000000000000600052603260045260246000fd5b6020020151815260200183600060028110611188577f4e487b7100000000000000000000000000000000000000000000000000000000600052603260045260246000fd5b60200201518152602001836001600281106111cc577f4e487b7100000000000000000000000000000000000000000000000000000000600052603260045260246000fd5b602002015181525090509392505050565b600a601d9054906101000a900460ff1615806111fd57506111fc611d0e565b5b61123c576040517f08c379a000000000000000000000000000000000000000000000000000000000815260040161123390613f2f565b60405180910390fd5b600c54811415611281576040517f08c379a000000000000000000000000000000000000000000000000000000000815260040161127890613e4f565b60405180910390fd5b61128a81611e1f565b50600681908060018154018082558091505060019003906000526020600020016000909190919091505550565b600c5481565b6112c5611d0e565b611304576040517f08c379a00000000000000000000000000000000000000000000000000000000081526004016112fb90613f0f565b60405180910390fd5b600073ffffffffffffffffffffffffffffffffffffffff1660008054906101000a900473ffffffffffffffffffffffffffffffffffffffff1673ffffffffffffffffffffffffffffffffffffffff167f8be0079c531659141344cd1fd0a4f28419497f9722a3daafe3b4186f6b6457e060405160405180910390a360008060006101000a81548173ffffffffffffffffffffffffffffffffffffffff021916908373ffffffffffffffffffffffffffffffffffffffff160217905550565b60076020528060005260406000206000915090508060000160009054906101000a90047cffffffffffffffffffffffffffffffffffffffffffffffffffffffffff169080600001601d9054906101000a900460ff169080600001601e9054906101000a900460ff16905083565b600a601d9054906101000a900460ff16158061144f575061144e611d0e565b5b61148e576040517f08c379a000000000000000000000000000000000000000000000000000000000815260040161148590613f2f565b60405180910390fd5b60076000827cffffffffffffffffffffffffffffffffffffffffffffffffffffffffff167cffffffffffffffffffffffffffffffffffffffffffffffffffffffffff168152602001908152602001600020600001601d9054906101000a900460ff1661152f576040517f08c379a000000000000000000000000000000000000000000000000000000000815260040161152690613f8f565b60405180910390fd5b6000151560076000837cffffffffffffffffffffffffffffffffffffffffffffffffffffffffff167cffffffffffffffffffffffffffffffffffffffffffffffffffffffffff168152602001908152602001600020600001601e9054906101000a900460ff161515146115d7576040517f08c379a00000000000000000000000000000000000000000000000000000000081526004016115ce90613def565b60405180910390fd5b600160076000837cffffffffffffffffffffffffffffffffffffffffffffffffffffffffff167cffffffffffffffffffffffffffffffffffffffffffffffffffffffffff168152602001908152602001600020600001601e6101000a81548160ff02191690831515021790555060011515817cffffffffffffffffffffffffffffffffffffffffffffffffffffffffff167fb8d2b8a2b352df7f139810483b3c80fc3a4a88711c90bdb7180f1030b7f49acf60405160405180910390a350565b600080600b67ffffffffffffffff8111156116db577f4e487b7100000000000000000000000000000000000000000000000000000000600052604160045260246000fd5b6040519080825280602002602001820160405280156117095781602001602082028036833780820191505090505b50905061171461304c565b61171c61304c565b60005b85518110156117c157858181518110611761577f4e487b7100000000000000000000000000000000000000000000000000000000600052603260045260246000fd5b60200260200101518482815181106117a2577f4e487b7100000000000000000000000000000000000000000000000000000000600052603260045260246000fd5b60200260200101818152505080806117b9906145b1565b91505061171f565b506000855190505b600b81101561182c57600084828151811061180d577f4e487b7100000000000000000000000000000000000000000000000000000000600052603260045260246000fd5b6020026020010181815250508080611824906145b1565b9150506117c9565b5060005b600581101561195e57838181518110611872577f4e487b7100000000000000000000000000000000000000000000000000000000600052603260045260246000fd5b60200260200101518382600581106118b3577f4e487b7100000000000000000000000000000000000000000000000000000000600052603260045260246000fd5b602002018181525050836005826118ca91906142d7565b81518110611901577f4e487b7100000000000000000000000000000000000000000000000000000000600052603260045260246000fd5b6020026020010151828260058110611942577f4e487b7100000000000000000000000000000000000000000000000000000000600052603260045260246000fd5b6020020181815250508080611956906145b1565b915050611830565b50611967613007565b73__$223301b175b06473d424a7afc957d4e96c$__634937a258846040518263ffffffff1660e01b815260040161199e9190613d60565b60206040518083038186803b1580156119b657600080fd5b505af41580156119ca573d6000803e3d6000fd5b505050506040513d601f19601f820116820180604052508101906119ee9190613683565b81600060028110611a28577f4e487b7100000000000000000000000000000000000000000000000000000000600052603260045260246000fd5b60200201818152505073__$223301b175b06473d424a7afc957d4e96c$__634937a258836040518263ffffffff1660e01b8152600401611a689190613d60565b60206040518083038186803b158015611a8057600080fd5b505af4158015611a94573d6000803e3d6000fd5b505050506040513d601f19601f82011682018060405250810190611ab89190613683565b81600160028110611af2577f4e487b7100000000000000000000000000000000000000000000000000000000600052603260045260246000fd5b602002018181525050611b03613007565b73__$86e0c54df1042e28bf2dd20ccf184dc428$__6329a5f2f6836040518263ffffffff1660e01b8152600401611b3a9190613cc6565b60206040518083038186803b158015611b5257600080fd5b505af4158015611b66573d6000803e3d6000fd5b505050506040513d601f19601f82011682018060405250810190611b8a9190613683565b81600060028110611bc4577f4e487b7100000000000000000000000000000000000000000000000000000000600052603260045260246000fd5b60200201818152505084600a81518110611c07577f4e487b7100000000000000000000000000000000000000000000000000000000600052603260045260246000fd5b602002602001015181600160028110611c49577f4e487b7100000000000000000000000000000000000000000000000000000000600052603260045260246000fd5b60200201818152505073__$86e0c54df1042e28bf2dd20ccf184dc428$__6329a5f2f6826040518263ffffffff1660e01b8152600401611c899190613cc6565b60206040518083038186803b158015611ca157600080fd5b505af4158015611cb5573d6000803e3d6000fd5b505050506040513d601f19601f82011682018060405250810190611cd99190613683565b95505050505050919050565b60008060009054906101000a900473ffffffffffffffffffffffffffffffffffffffff16905090565b60008060009054906101000a900473ffffffffffffffffffffffffffffffffffffffff1673ffffffffffffffffffffffffffffffffffffffff163373ffffffffffffffffffffffffffffffffffffffff1614905090565b60085481565b60068181548110611d7b57600080fd5b906000526020600020016000915090505481565b600073__$223301b175b06473d424a7afc957d4e96c$__634937a258836040518263ffffffff1660e01b8152600401611dc89190613d60565b60206040518083038186803b158015611de057600080fd5b505af4158015611df4573d6000803e3d6000fd5b505050506040513d601f19601f82011682018060405250810190611e189190613683565b9050919050565b60007f30644e72e131a029b85045b68181585d2833e84879b9709143e1f593f00000018210611e83576040517f08c379a0000000000000000000000000000000000000000000000000000000008152600401611e7a90613ecf565b60405180910390fd5b600060149054906101000a900460ff1660ff16600560ff16611ea591906143b1565b60015410611ee8576040517f08c379a0000000000000000000000000000000000000000000000000000000008152600401611edf90613fef565b60405180910390fd5b600060015490506000839050611efc61304c565b6000600560ff1684611f0e9190614624565b905060005b600060149054906101000a900460ff1660ff168160ff1610156120ad576000821415611fa9576000600190505b600560ff168160ff161015611fa757600360008360ff16815260200190815260200160002054600460008460ff16815260200190815260200160002060008360ff168152602001908152602001600020819055508080611f9f906145fa565b915050611f40565b505b83600460008360ff16815260200190815260200160002060008481526020019081526020016000208190555060005b600560ff168160ff16101561206a57600460008360ff16815260200190815260200160002060008260ff16815260200190815260200160002054848260ff166005811061204e577f4e487b7100000000000000000000000000000000000000000000000000000000600052603260045260246000fd5b6020020181815250508080612062906145fa565b915050611fd8565b5061207483611d8f565b9350600560ff1685612086919061432d565b9450600560ff16856120989190614624565b915080806120a5906145fa565b915050611f13565b5082600281905550600160056000600254815260200190815260200160002060006101000a81548160ff0219169083151502179055506000600154905060018060008282546120fc91906142d7565b9250508190555080877fe6f49fa84abd31919f446b22a52bb3ceae774b4b87f062f022fec45c46f4f45860405160405180910390a38495505050505050919050565b6000600154905090565b600060076000837cffffffffffffffffffffffffffffffffffffffffffffffffffffffffff167cffffffffffffffffffffffffffffffffffffffffffffffffffffffffff168152602001908152602001600020600001601d9054906101000a900460ff166121eb576040517f08c379a00000000000000000000000000000000000000000000000000000000081526004016121e290613e8f565b60405180910390fd5b600060076000847cffffffffffffffffffffffffffffffffffffffffffffffffffffffffff167cffffffffffffffffffffffffffffffffffffffffffffffffffffffffff16815260200190815260200160002060000160009054906101000a90047cffffffffffffffffffffffffffffffffffffffffffffffffffffffffff16905060016008541180156122dd575060076000827cffffffffffffffffffffffffffffffffffffffffffffffffffffffffff167cffffffffffffffffffffffffffffffffffffffffffffffffffffffffff168152602001908152602001600020600001601d9054906101000a900460ff165b61231c576040517f08c379a000000000000000000000000000000000000000000000000000000000815260040161231390613fcf565b60405180910390fd5b80915050919050565b600b6020528060005260406000206000915054906101000a900460ff1681565b600a60009054906101000a90047cffffffffffffffffffffffffffffffffffffffffffffffffffffffffff1681565b61237c611d0e565b6123bb576040517f08c379a00000000000000000000000000000000000000000000000000000000081526004016123b290613f0f565b60405180910390fd5b80600a601d6101000a81548160ff0219169083151502179055508015157ffba91b9002bc7732a7bff1b44ee16a30ebaeb06d7921779034c6a6ab27e69c2760405160405180910390a250565b600060076000837cffffffffffffffffffffffffffffffffffffffffffffffffffffffffff167cffffffffffffffffffffffffffffffffffffffffffffffffffffffffff168152602001908152602001600020600001601e9054906101000a900460ff169050919050565b60025481565b60056020528060005260406000206000915054906101000a900460ff1681565b6124a0611d0e565b6124df576040517f08c379a00000000000000000000000000000000000000000000000000000000081526004016124d690613f0f565b60405180910390fd5b6124e881612eda565b50565b6124f3613007565b6124fb61306e565b612503613007565b604051806040016040528085600060088110612548577f4e487b7100000000000000000000000000000000000000000000000000000000600052603260045260246000fd5b602002015181526020018560016008811061258c577f4e487b7100000000000000000000000000000000000000000000000000000000600052603260045260246000fd5b602002015181525060405180604001604052806040518060400160405280886002600881106125e4577f4e487b7100000000000000000000000000000000000000000000000000000000600052603260045260246000fd5b6020020151815260200188600360088110612628577f4e487b7100000000000000000000000000000000000000000000000000000000600052603260045260246000fd5b6020020151815250815260200160405180604001604052808860046008811061267a577f4e487b7100000000000000000000000000000000000000000000000000000000600052603260045260246000fd5b60200201518152602001886005600881106126be577f4e487b7100000000000000000000000000000000000000000000000000000000600052603260045260246000fd5b602002015181525081525060405180604001604052808760066008811061270e577f4e487b7100000000000000000000000000000000000000000000000000000000600052603260045260246000fd5b6020020151815260200187600760088110612752577f4e487b7100000000000000000000000000000000000000000000000000000000600052603260045260246000fd5b60200201518152509250925092509193909250565b60007f30644e72e131a029b85045b68181585d2833e84879b9709143e1f593f0000001826000600881106127c4577f4e487b7100000000000000000000000000000000000000000000000000000000600052603260045260246000fd5b602002015110801561283357507f30644e72e131a029b85045b68181585d2833e84879b9709143e1f593f00000018260016008811061282c577f4e487b7100000000000000000000000000000000000000000000000000000000600052603260045260246000fd5b6020020151105b801561289c57507f30644e72e131a029b85045b68181585d2833e84879b9709143e1f593f000000182600260088110612895577f4e487b7100000000000000000000000000000000000000000000000000000000600052603260045260246000fd5b6020020151105b801561290557507f30644e72e131a029b85045b68181585d2833e84879b9709143e1f593f0000001826003600881106128fe577f4e487b7100000000000000000000000000000000000000000000000000000000600052603260045260246000fd5b6020020151105b801561296e57507f30644e72e131a029b85045b68181585d2833e84879b9709143e1f593f000000182600460088110612967577f4e487b7100000000000000000000000000000000000000000000000000000000600052603260045260246000fd5b6020020151105b80156129d757507f30644e72e131a029b85045b68181585d2833e84879b9709143e1f593f0000001826005600881106129d0577f4e487b7100000000000000000000000000000000000000000000000000000000600052603260045260246000fd5b6020020151105b8015612a4057507f30644e72e131a029b85045b68181585d2833e84879b9709143e1f593f000000182600660088110612a39577f4e487b7100000000000000000000000000000000000000000000000000000000600052603260045260246000fd5b6020020151105b8015612aa957507f30644e72e131a029b85045b68181585d2833e84879b9709143e1f593f000000182600760088110612aa2577f4e487b7100000000000000000000000000000000000000000000000000000000600052603260045260246000fd5b6020020151105b9050919050565b60006008828051906020012060001c901c9050919050565b8015612b265781600960006101000a8154817cffffffffffffffffffffffffffffffffffffffffffffffffffffffffff02191690837cffffffffffffffffffffffffffffffffffffffffffffffffffffffffff160217905550612c9f565b6000151560076000847cffffffffffffffffffffffffffffffffffffffffffffffffffffffffff167cffffffffffffffffffffffffffffffffffffffffffffffffffffffffff168152602001908152602001600020600001601d9054906101000a900460ff16151514612bce576040517f08c379a0000000000000000000000000000000000000000000000000000000008152600401612bc590613eef565b60405180910390fd5b8160076000600a60009054906101000a90047cffffffffffffffffffffffffffffffffffffffffffffffffffffffffff167cffffffffffffffffffffffffffffffffffffffffffffffffffffffffff167cffffffffffffffffffffffffffffffffffffffffffffffffffffffffff16815260200190815260200160002060000160006101000a8154817cffffffffffffffffffffffffffffffffffffffffffffffffffffffffff02191690837cffffffffffffffffffffffffffffffffffffffffffffffffffffffffff1602179055505b600060076000847cffffffffffffffffffffffffffffffffffffffffffffffffffffffffff167cffffffffffffffffffffffffffffffffffffffffffffffffffffffffff16815260200190815260200160002060000160006101000a8154817cffffffffffffffffffffffffffffffffffffffffffffffffffffffffff02191690837cffffffffffffffffffffffffffffffffffffffffffffffffffffffffff160217905550600160076000847cffffffffffffffffffffffffffffffffffffffffffffffffffffffffff167cffffffffffffffffffffffffffffffffffffffffffffffffffffffffff168152602001908152602001600020600001601e6101000a81548160ff021916908315150217905550600160076000847cffffffffffffffffffffffffffffffffffffffffffffffffffffffffff167cffffffffffffffffffffffffffffffffffffffffffffffffffffffffff168152602001908152602001600020600001601d6101000a81548160ff02191690831515021790555081600a60006101000a8154817cffffffffffffffffffffffffffffffffffffffffffffffffffffffffff02191690837cffffffffffffffffffffffffffffffffffffffffffffffffffffffffff16021790555060086000815480929190612e85906145b1565b9190505550817cffffffffffffffffffffffffffffffffffffffffffffffffffffffffff167fd1ca56647596090d70fa8d49bcc376b97248314e3f204c491333b3440405f58960405160405180910390a25050565b600073ffffffffffffffffffffffffffffffffffffffff168173ffffffffffffffffffffffffffffffffffffffff161415612f4a576040517f08c379a0000000000000000000000000000000000000000000000000000000008152600401612f4190613e0f565b60405180910390fd5b8073ffffffffffffffffffffffffffffffffffffffff1660008054906101000a900473ffffffffffffffffffffffffffffffffffffffff1673ffffffffffffffffffffffffffffffffffffffff167f8be0079c531659141344cd1fd0a4f28419497f9722a3daafe3b4186f6b6457e060405160405180910390a3806000806101000a81548173ffffffffffffffffffffffffffffffffffffffff021916908373ffffffffffffffffffffffffffffffffffffffff16021790555050565b6040518060400160405280600290602082028036833780820191505090505090565b604051806101000160405280600890602082028036833780820191505090505090565b6040518060a00160405280600590602082028036833780820191505090505090565b60405180604001604052806002905b613085613007565b81526020019060019003908161307d5790505090565b60006130ae6130a9846140a1565b61407c565b905080828560408602820111156130c457600080fd5b60005b858110156130f457816130da888261330d565b8452602084019350604083019250506001810190506130c7565b5050509392505050565b600061311161310c846140c7565b61407c565b9050808285602086028201111561312757600080fd5b60005b85811015613157578161313d8882613415565b84526020840193506020830192505060018101905061312a565b5050509392505050565b600061317461316f846140ed565b61407c565b9050808285602086028201111561318a57600080fd5b60005b858110156131ba57816131a08882613415565b84526020840193506020830192505060018101905061318d565b5050509392505050565b60006131d76131d284614113565b61407c565b905080828560208602820111156131ed57600080fd5b60005b8581101561321d57816132038882613415565b8452602084019350602083019250506001810190506131f0565b5050509392505050565b600061323a61323584614139565b61407c565b9050808382526020820190508285602086028201111561325957600080fd5b60005b85811015613289578161326f8882613415565b84526020840193506020830192505060018101905061325c565b5050509392505050565b60006132a66132a184614165565b61407c565b9050828152602081018484840111156132be57600080fd5b6132c9848285614571565b509392505050565b6000813590506132e081614c19565b92915050565b600082601f8301126132f757600080fd5b600261330484828561309b565b91505092915050565b600082601f83011261331e57600080fd5b600261332b8482856130fe565b91505092915050565b600082601f83011261334557600080fd5b6005613352848285613161565b91505092915050565b600082601f83011261336c57600080fd5b60086133798482856131c4565b91505092915050565b600082601f83011261339357600080fd5b81356133a3848260208601613227565b91505092915050565b6000813590506133bb81614c30565b92915050565b6000815190506133d081614c30565b92915050565b600082601f8301126133e757600080fd5b81356133f7848260208601613293565b91505092915050565b60008135905061340f81614c47565b92915050565b60008135905061342481614c5e565b92915050565b60008151905061343981614c5e565b92915050565b60006020828403121561345157600080fd5b600061345f848285016132d1565b91505092915050565b6000806000610100848603121561347e57600080fd5b600061348c8682870161330d565b935050604061349d868287016132e6565b92505060c06134ae8682870161330d565b9150509250925092565b600060a082840312156134ca57600080fd5b60006134d884828501613334565b91505092915050565b600061010082840312156134f457600080fd5b60006135028482850161335b565b91505092915050565b60006020828403121561351d57600080fd5b600082013567ffffffffffffffff81111561353757600080fd5b61354384828501613382565b91505092915050565b60006020828403121561355e57600080fd5b600061356c848285016133ac565b91505092915050565b60006020828403121561358757600080fd5b6000613595848285016133c1565b91505092915050565b600080600080600061018086880312156135b757600080fd5b600086013567ffffffffffffffff8111156135d157600080fd5b6135dd888289016133d6565b95505060206135ee8882890161335b565b94505061012061360088828901613415565b93505061014061361288828901613415565b92505061016061362488828901613400565b9150509295509295909350565b60006020828403121561364357600080fd5b600061365184828501613400565b91505092915050565b60006020828403121561366c57600080fd5b600061367a84828501613415565b91505092915050565b60006020828403121561369557600080fd5b60006136a38482850161342a565b91505092915050565b600080604083850312156136bf57600080fd5b60006136cd85828601613415565b92505060206136de85828601613415565b9150509250929050565b60006136f48383613796565b60408301905092915050565b600061370c8383613c7e565b60208301905092915050565b60006137248383613c9c565b60208301905092915050565b613739816144cf565b82525050565b613748816141d8565b6137528184614268565b925061375d82614196565b8060005b8381101561378e57815161377587826136e8565b96506137808361421a565b925050600181019050613761565b505050505050565b61379f816141e3565b6137a98184614273565b92506137b4826141a0565b8060005b838110156137e55781516137cc8782613700565b96506137d783614227565b9250506001810190506137b8565b505050505050565b6137f6816141e3565b613800818461427e565b925061380b826141a0565b8060005b8381101561383c5781516138238782613700565b965061382e83614227565b92505060018101905061380f565b505050505050565b61384d816141e3565b6138578184614289565b9250613862826141a0565b8060005b8381101561389357815161387a8782613718565b965061388583614227565b925050600181019050613866565b505050505050565b6138a4816141ee565b6138ae8184614294565b92506138b9826141aa565b8060005b838110156138ea5781516138d18782613700565b96506138dc83614234565b9250506001810190506138bd565b505050505050565b6138fb816141f9565b613905818461429f565b9250613910826141b4565b8060005b838110156139415781516139288782613718565b965061393383614241565b925050600181019050613914565b505050505050565b61395281614204565b61395c81846142aa565b9250613967826141be565b8060005b8381101561399857815161397f8782613700565b965061398a8361424e565b92505060018101905061396b565b505050505050565b60006139ab8261420f565b6139b581856142b5565b93506139c0836141c8565b8060005b838110156139f15781516139d88882613700565b97506139e38361425b565b9250506001810190506139c4565b5085935050505092915050565b613a07816144e1565b82525050565b613a168161454d565b82525050565b6000613a29602f836142c6565b9150613a3482614700565b604082019050919050565b6000613a4c6026836142c6565b9150613a578261474f565b604082019050919050565b6000613a6f6018836142c6565b9150613a7a8261479e565b602082019050919050565b6000613a926047836142c6565b9150613a9d826147c7565b606082019050919050565b6000613ab56018836142c6565b9150613ac08261483c565b602082019050919050565b6000613ad86025836142c6565b9150613ae382614865565b604082019050919050565b6000613afb6031836142c6565b9150613b06826148b4565b604082019050919050565b6000613b1e6045836142c6565b9150613b2982614903565b606082019050919050565b6000613b416029836142c6565b9150613b4c82614978565b604082019050919050565b6000613b646020836142c6565b9150613b6f826149c7565b602082019050919050565b6000613b876026836142c6565b9150613b92826149f0565b604082019050919050565b6000613baa602c836142c6565b9150613bb582614a3f565b604082019050919050565b6000613bcd6021836142c6565b9150613bd882614a8e565b604082019050919050565b6000613bf06027836142c6565b9150613bfb82614add565b604082019050919050565b6000613c136040836142c6565b9150613c1e82614b2c565b604082019050919050565b6000613c36603f836142c6565b9150613c4182614b7b565b604082019050919050565b6000613c596021836142c6565b9150613c6482614bca565b604082019050919050565b613c788161450d565b82525050565b613c8781614536565b82525050565b613c9681614536565b82525050565b613ca581614536565b82525050565b6000602082019050613cc06000830184613730565b92915050565b6000604082019050613cdb6000830184613844565b92915050565b600061010082019050613cf760008301866137ed565b613d04604083018561373f565b613d1160c08301846137ed565b949350505050565b600061018082019050613d2f60008301876137ed565b613d3c604083018661373f565b613d4960c08301856137ed565b613d5761010083018461389b565b95945050505050565b600060a082019050613d7560008301846138f2565b92915050565b600061010082019050613d916000830184613949565b92915050565b60006020820190508181036000830152613db181846139a0565b905092915050565b6000602082019050613dce60008301846139fe565b92915050565b6000602082019050613de96000830184613a0d565b92915050565b60006020820190508181036000830152613e0881613a1c565b9050919050565b60006020820190508181036000830152613e2881613a3f565b9050919050565b60006020820190508181036000830152613e4881613a62565b9050919050565b60006020820190508181036000830152613e6881613a85565b9050919050565b60006020820190508181036000830152613e8881613aa8565b9050919050565b60006020820190508181036000830152613ea881613acb565b9050919050565b60006020820190508181036000830152613ec881613aee565b9050919050565b60006020820190508181036000830152613ee881613b11565b9050919050565b60006020820190508181036000830152613f0881613b34565b9050919050565b60006020820190508181036000830152613f2881613b57565b9050919050565b60006020820190508181036000830152613f4881613b7a565b9050919050565b60006020820190508181036000830152613f6881613b9d565b9050919050565b60006020820190508181036000830152613f8881613bc0565b9050919050565b60006020820190508181036000830152613fa881613be3565b9050919050565b60006020820190508181036000830152613fc881613c06565b9050919050565b60006020820190508181036000830152613fe881613c29565b9050919050565b6000602082019050818103600083015261400881613c4c565b9050919050565b60006020820190506140246000830184613c6f565b92915050565b600060608201905061403f6000830186613c6f565b61404c60208301856139fe565b61405960408301846139fe565b949350505050565b60006020820190506140766000830184613c8d565b92915050565b6000614086614097565b90506140928282614580565b919050565b6000604051905090565b600067ffffffffffffffff8211156140bc576140bb6146b3565b5b602082029050919050565b600067ffffffffffffffff8211156140e2576140e16146b3565b5b602082029050919050565b600067ffffffffffffffff821115614108576141076146b3565b5b602082029050919050565b600067ffffffffffffffff82111561412e5761412d6146b3565b5b602082029050919050565b600067ffffffffffffffff821115614154576141536146b3565b5b602082029050602081019050919050565b600067ffffffffffffffff8211156141805761417f6146b3565b5b614189826146e2565b9050602081019050919050565b6000819050919050565b6000819050919050565b6000819050919050565b6000819050919050565b6000819050919050565b6000819050602082019050919050565b600060029050919050565b600060029050919050565b600060049050919050565b600060059050919050565b600060089050919050565b600081519050919050565b6000602082019050919050565b6000602082019050919050565b6000602082019050919050565b6000602082019050919050565b6000602082019050919050565b6000602082019050919050565b600081905092915050565b600081905092915050565b600081905092915050565b600081905092915050565b600081905092915050565b600081905092915050565b600081905092915050565b600082825260208201905092915050565b600082825260208201905092915050565b60006142e282614536565b91506142ed83614536565b9250827fffffffffffffffffffffffffffffffffffffffffffffffffffffffffffffffff0382111561432257614321614655565b5b828201905092915050565b600061433882614536565b915061434383614536565b92508261435357614352614684565b5b828204905092915050565b6000808291508390505b60018511156143a85780860481111561438457614383614655565b5b60018516156143935780820291505b80810290506143a1856146f3565b9450614368565b94509492505050565b60006143bc82614536565b91506143c783614536565b92506143f47fffffffffffffffffffffffffffffffffffffffffffffffffffffffffffffffff84846143fc565b905092915050565b60008261440c57600190506144c8565b8161441a57600090506144c8565b8160018114614430576002811461443a57614469565b60019150506144c8565b60ff84111561444c5761444b614655565b5b8360020a91508482111561446357614462614655565b5b506144c8565b5060208310610133831016604e8410600b841016171561449e5782820a90508381111561449957614498614655565b5b6144c8565b6144ab848484600161435e565b925090508184048111156144c2576144c1614655565b5b81810290505b9392505050565b60006144da826144ed565b9050919050565b60008115159050919050565b600073ffffffffffffffffffffffffffffffffffffffff82169050919050565b60007cffffffffffffffffffffffffffffffffffffffffffffffffffffffffff82169050919050565b6000819050919050565b600060ff82169050919050565b60006145588261455f565b9050919050565b600061456a826144ed565b9050919050565b82818337600083830152505050565b614589826146e2565b810181811067ffffffffffffffff821117156145a8576145a76146b3565b5b80604052505050565b60006145bc82614536565b91507fffffffffffffffffffffffffffffffffffffffffffffffffffffffffffffffff8214156145ef576145ee614655565b5b600182019050919050565b600061460582614540565b915060ff82141561461957614618614655565b5b600182019050919050565b600061462f82614536565b915061463a83614536565b92508261464a57614649614684565b5b828206905092915050565b7f4e487b7100000000000000000000000000000000000000000000000000000000600052601160045260246000fd5b7f4e487b7100000000000000000000000000000000000000000000000000000000600052601260045260246000fd5b7f4e487b7100000000000000000000000000000000000000000000000000000000600052604160045260246000fd5b6000601f19601f8301169050919050565b60008160011c9050919050565b7f53656d6170686f72653a2065787465726e616c206e756c6c696669657220697360008201527f20616c7265616479206163746976650000000000000000000000000000000000602082015250565b7f4f776e61626c653a206e6577206f776e657220697320746865207a65726f206160008201527f6464726573730000000000000000000000000000000000000000000000000000602082015250565b7f53656d6170686f72653a20696e76616c69642070726f6f660000000000000000600082015250565b7f53656d6170686f72653a206964656e7469747920636f6d6d69746d656e74206360008201527f616e6e6f7420626520746865206e6f7468696e672d75702d6d792d736c65657660208201527f652d76616c756500000000000000000000000000000000000000000000000000604082015250565b7f53656d6170686f72653a20726f6f74206e6f74207365656e0000000000000000600082015250565b7f53656d6170686f72653a206e6f20737563682065787465726e616c206e756c6c60008201527f6966696572000000000000000000000000000000000000000000000000000000602082015250565b7f53656d6170686f72653a2065787465726e616c206e756c6c696669657220616c60008201527f7265616479206465616374697661746564000000000000000000000000000000602082015250565b7f496e6372656d656e74616c5175696e547265653a20696e736572744c6561662060008201527f617267756d656e74206d757374206265203c20534e41524b5f5343414c41525f60208201527f4649454c44000000000000000000000000000000000000000000000000000000604082015250565b7f53656d6170686f72653a2065787465726e616c206e756c6c696669657220616c60008201527f7265616479207365740000000000000000000000000000000000000000000000602082015250565b7f4f776e61626c653a2063616c6c6572206973206e6f7420746865206f776e6572600082015250565b7f53656d6170686f72653a2062726f616463617374207065726d697373696f6e2060008201527f64656e6965640000000000000000000000000000000000000000000000000000602082015250565b7f53656d6170686f72653a20696e76616c6964206669656c6420656c656d656e7460008201527f28732920696e2070726f6f660000000000000000000000000000000000000000602082015250565b7f53656d6170686f72653a206e756c6c696669657220616c72656164792073656560008201527f6e00000000000000000000000000000000000000000000000000000000000000602082015250565b7f53656d6170686f72653a2065787465726e616c206e756c6c6966696572206e6f60008201527f7420666f756e6400000000000000000000000000000000000000000000000000602082015250565b7f53656d6170686f72653a20746865206e756c6c6966696572732068617368206d60008201527f757374206265206c742074686520736e61726b207363616c6172206669656c64602082015250565b7f53656d6170686f72653a206e6f2065787465726e616c206e756c6c696669657260008201527f206578697374732061667465722074686520737065636966696564206f6e6500602082015250565b7f496e6372656d656e74616c5175696e547265653a20747265652069732066756c60008201527f6c00000000000000000000000000000000000000000000000000000000000000602082015250565b614c22816144cf565b8114614c2d57600080fd5b50565b614c39816144e1565b8114614c4457600080fd5b50565b614c508161450d565b8114614c5b57600080fd5b50565b614c6781614536565b8114614c7257600080fd5b5056fea26469706673582212201ca062bfff4baf795f7f30a5efe2f4085fbc121bd13848bf4aafab4adac694ae64736f6c63430008040033",
  "linkReferences": {
    "contracts/Poseidon.sol": {
      "PoseidonT3": [
        {
          "length": 20,
          "start": 7194
        },
        {
          "length": 20,
          "start": 10546
        },
        {
          "length": 20,
          "start": 10881
        }
      ],
      "PoseidonT6": [
        {
          "length": 20,
          "start": 974
        },
        {
          "length": 20,
          "start": 10134
        },
        {
          "length": 20,
          "start": 10336
        },
        {
          "length": 20,
          "start": 11200
        }
      ]
    }
  },
  "deployedLinkReferences": {
    "contracts/Poseidon.sol": {
      "PoseidonT3": [
        {
          "length": 20,
          "start": 3565
        },
        {
          "length": 20,
          "start": 6917
        },
        {
          "length": 20,
          "start": 7252
        }
      ],
      "PoseidonT6": [
        {
          "length": 20,
          "start": 6505
        },
        {
          "length": 20,
          "start": 6707
        },
        {
          "length": 20,
          "start": 7571
        }
      ]
    }
  }
}